{
  "contractName": "DappToken",
  "abi": [
    {
      "inputs": [],
      "payable": false,
      "stateMutability": "nonpayable",
      "type": "constructor"
    },
    {
      "constant": true,
      "inputs": [],
      "name": "totalSupply",
      "outputs": [
        {
          "internalType": "uint256",
          "name": "",
          "type": "uint256"
        }
      ],
      "payable": false,
      "stateMutability": "view",
      "type": "function"
    }
  ],
  "bytecode": "0x6080604052348015600f57600080fd5b50620f42406000819055506084806100286000396000f3fe6080604052348015600f57600080fd5b506004361060285760003560e01c806318160ddd14602d575b600080fd5b60336049565b6040518082815260200191505060405180910390f35b6000548156fea265627a7a723158200b437f2c9372dd7165933275a28b890c2dc535f49d55f5a1113a19b3a5b0bed164736f6c63430005100032",
  "source": "pragma solidity >=0.4.22 <0.8.0;\n\ncontract DappToken {\n    \n    \n    uint256 public totalSupply;\n\n    //constructor\n    constructor() public {\n        totalSupply = 1000000;\n    }\n    //set the total number of tokens\n    //read the total number of tokens\n\n\n}",
  "sourcePath": "/Users/maxi/Library/Mobile Documents/com~apple~CloudDocs/Documents/Studium/5. Semester/Projektseminar/Solidity/token_sale/contracts/DappToken.sol",
  "compiler": {
    "name": "solc",
    "version": "0.5.16+commit.9c3226ce.Emscripten.clang"
  },
  "schemaVersion": "3.2.5",
  "updatedAt": "2020-10-18T16:35:29.471Z",
  "networkType": "ethereum",
  "devdoc": {
    "methods": {}
  },
  "userdoc": {
    "methods": {}
  }
}